{
  "contractName": "AdvancedStorage",
  "abi": [
    {
      "inputs": [
        {
          "internalType": "uint256",
          "name": "",
          "type": "uint256"
        }
      ],
      "name": "ids",
      "outputs": [
        {
          "internalType": "uint256",
          "name": "",
          "type": "uint256"
        }
      ],
      "stateMutability": "view",
      "type": "function",
      "constant": true
    },
    {
      "inputs": [
        {
          "internalType": "uint256",
          "name": "id",
          "type": "uint256"
        }
      ],
      "name": "add",
      "outputs": [],
      "stateMutability": "nonpayable",
      "type": "function"
    },
    {
      "inputs": [
        {
          "internalType": "uint256",
          "name": "index",
          "type": "uint256"
        }
      ],
      "name": "get",
      "outputs": [
        {
          "internalType": "uint256",
          "name": "",
          "type": "uint256"
        }
      ],
      "stateMutability": "view",
      "type": "function",
      "constant": true
    },
    {
      "inputs": [],
      "name": "getAll",
      "outputs": [
        {
          "internalType": "uint256[]",
          "name": "",
          "type": "uint256[]"
        }
      ],
      "stateMutability": "view",
      "type": "function",
      "constant": true
    },
    {
      "inputs": [],
      "name": "length",
      "outputs": [
        {
          "internalType": "uint256",
          "name": "",
          "type": "uint256"
        }
      ],
      "stateMutability": "view",
      "type": "function",
      "constant": true
    }
  ],
  "bytecode": "0x608060405234801561001057600080fd5b5061024a806100206000396000f3fe608060405234801561001057600080fd5b50600436106100575760003560e01c80631003e2d21461005c5780631f7b6d321461007157806353ed51431461008f5780639507d39a146100a4578063fac333ac146100b7575b600080fd5b61006f61006a3660046101af565b6100ca565b005b6100796100fc565b604051610086919061020b565b60405180910390f35b610097610102565b60405161008691906101c7565b6100796100b23660046101af565b61015a565b6100796100c53660046101af565b61018e565b600080546001810182559080527f290decd9548b62a8d60345a988386fc84ba6bc95484008f6362f93160ef3e5630155565b60005490565b6060600080548060200260200160405190810160405280929190818152602001828054801561015057602002820191906000526020600020905b81548152602001906001019080831161013c575b5050505050905090565b600080828154811061017c57634e487b7160e01b600052603260045260246000fd5b90600052602060002001549050919050565b6000818154811061019e57600080fd5b600091825260209091200154905081565b6000602082840312156101c0578081fd5b5035919050565b6020808252825182820181905260009190848201906040850190845b818110156101ff578351835292840192918401916001016101e3565b50909695505050505050565b9081526020019056fea26469706673582212202f2d202be23cf316530d452b1826884fd3b8bf3fbdd2ca57b018b3b11487951664736f6c63430008000033",
  "immutableReferences": {},
  "source": "// SPDX-License-Identifier: MIT \r\npragma solidity ^0.8.0;\r\n\r\ncontract AdvancedStorage {\r\n\r\n    uint[] public ids;\r\n\r\n    function add(uint id) public {\r\n        ids.push(id);\r\n    }\r\n\r\n    function get(uint index) view public returns(uint) {\r\n        return ids[index];\r\n    }\r\n\r\n    function getAll() view public returns(uint[] memory) {\r\n        return ids;\r\n    }\r\n\r\n    function length() view public returns(uint) {\r\n        return ids.length;\r\n    }\r\n\r\n}",
  "sourcePath": "C:\\Users\\cassi\\Documents\\DApps\\AdvancedStorage\\contracts\\AdvancedStorage.sol",
  "compiler": {
    "name": "solc",
    "version": "0.8.0+commit.c7dfd78e.Emscripten.clang"
  },
  "schemaVersion": "3.4.16",
  "updatedAt": "2023-11-08T22:04:08.050Z",
  "networkType": "ethereum",
  "devdoc": {
    "kind": "dev",
    "methods": {},
    "version": 1
  },
  "userdoc": {
    "kind": "user",
    "methods": {},
    "version": 1
  }
}